{
  "_format": "hh-sol-artifact-1",
  "contractName": "NUSBank",
  "sourceName": "contracts/NUSBank.sol",
  "abi": [
    {
      "inputs": [],
      "stateMutability": "nonpayable",
      "type": "constructor"
    },
    {
      "inputs": [
        {
          "internalType": "address",
          "name": "",
          "type": "address"
        },
        {
          "internalType": "bytes32",
          "name": "",
          "type": "bytes32"
        }
      ],
      "name": "balances",
      "outputs": [
        {
          "internalType": "uint256",
          "name": "",
          "type": "uint256"
        }
      ],
      "stateMutability": "view",
      "type": "function"
    },
    {
      "inputs": [
        {
          "internalType": "uint256",
          "name": "amount",
          "type": "uint256"
        },
        {
          "internalType": "bytes32",
          "name": "symbol",
          "type": "bytes32"
        }
      ],
      "name": "depositTokens",
      "outputs": [],
      "stateMutability": "nonpayable",
      "type": "function"
    },
    {
      "inputs": [
        {
          "internalType": "bytes32",
          "name": "symbol",
          "type": "bytes32"
        }
      ],
      "name": "getTokenBalance",
      "outputs": [
        {
          "internalType": "uint256",
          "name": "",
          "type": "uint256"
        }
      ],
      "stateMutability": "view",
      "type": "function"
    },
    {
      "inputs": [],
      "name": "getWhitelistedSymbols",
      "outputs": [
        {
          "internalType": "bytes32[]",
          "name": "",
          "type": "bytes32[]"
        }
      ],
      "stateMutability": "view",
      "type": "function"
    },
    {
      "inputs": [
        {
          "internalType": "bytes32",
          "name": "symbol",
          "type": "bytes32"
        }
      ],
      "name": "getWhitelistedTokenAddress",
      "outputs": [
        {
          "internalType": "address",
          "name": "",
          "type": "address"
        }
      ],
      "stateMutability": "view",
      "type": "function"
    },
    {
      "inputs": [
        {
          "internalType": "uint256",
          "name": "amount",
          "type": "uint256"
        },
        {
          "internalType": "bytes32",
          "name": "symbol",
          "type": "bytes32"
        }
      ],
      "name": "sendTokens",
      "outputs": [],
      "stateMutability": "nonpayable",
      "type": "function"
    },
    {
      "inputs": [
        {
          "internalType": "bytes32",
          "name": "symbol",
          "type": "bytes32"
        },
        {
          "internalType": "address",
          "name": "tokenAddress",
          "type": "address"
        }
      ],
      "name": "whitelistToken",
      "outputs": [],
      "stateMutability": "nonpayable",
      "type": "function"
    },
    {
      "inputs": [
        {
          "internalType": "uint256",
          "name": "",
          "type": "uint256"
        }
      ],
      "name": "whitelistedSymbols",
      "outputs": [
        {
          "internalType": "bytes32",
          "name": "",
          "type": "bytes32"
        }
      ],
      "stateMutability": "view",
      "type": "function"
    },
    {
      "inputs": [
        {
          "internalType": "bytes32",
          "name": "",
          "type": "bytes32"
        }
      ],
      "name": "whitelistedTokens",
      "outputs": [
        {
          "internalType": "address",
          "name": "",
          "type": "address"
        }
      ],
      "stateMutability": "view",
      "type": "function"
    },
    {
      "inputs": [
        {
          "internalType": "uint256",
          "name": "amount",
          "type": "uint256"
        }
      ],
      "name": "withdrawEther",
      "outputs": [],
      "stateMutability": "nonpayable",
      "type": "function"
    },
    {
      "inputs": [
        {
          "internalType": "uint256",
          "name": "amount",
          "type": "uint256"
        },
        {
          "internalType": "bytes32",
          "name": "symbol",
          "type": "bytes32"
        }
      ],
      "name": "withdrawTokens",
      "outputs": [],
      "stateMutability": "nonpayable",
      "type": "function"
    },
    {
      "stateMutability": "payable",
      "type": "receive"
    }
  ],
  "bytecode": "0x608060405234801561001057600080fd5b50600080546001600160a01b031916331790556108aa806100326000396000f3fe6080604052600436106100a05760003560e01c806388db6ac61161006457806388db6ac6146101b05780638f97994b146101e8578063aa3d9a1514610208578063b7691c9f14610256578063d15b223e14610276578063e88127881461029657600080fd5b8063069fdaae146100e15780631f14df69146101035780633bed33ce1461014e5780634762b9761461016e5780634b1e4aa51461018e57600080fd5b366100dc573360009081526003602090815260408083206208ae8d60eb1b8452909152812080543492906100d590849061082f565b9091555050005b600080fd5b3480156100ed57600080fd5b506101016100fc366004610773565b6102cc565b005b34801561010f57600080fd5b5061013b61011e36600461070b565b600360209081526000928352604080842090915290825290205481565b6040519081526020015b60405180910390f35b34801561015a57600080fd5b5061010161016936600461075b565b610388565b34801561017a57600080fd5b5061013b61018936600461075b565b610487565b34801561019a57600080fd5b506101a36104a8565b60405161014591906107bf565b3480156101bc57600080fd5b5061013b6101cb36600461075b565b336000908152600360209081526040808320938352929052205490565b3480156101f457600080fd5b5061010161020336600461079e565b610500565b34801561021457600080fd5b5061023e61022336600461075b565b6002602052600090815260409020546001600160a01b031681565b6040516001600160a01b039091168152602001610145565b34801561026257600080fd5b5061010161027136600461079e565b610600565b34801561028257600080fd5b5061010161029136600461079e565b610676565b3480156102a257600080fd5b5061023e6102b136600461075b565b6000908152600260205260409020546001600160a01b031690565b6000546001600160a01b0316331461032b5760405162461bcd60e51b815260206004820152601e60248201527f4f6e6c79204f776e65722063616e2077686974656c69737420746f6b656e000060448201526064015b60405180910390fd5b600180548082019091557fb10e2d527612073b26eecdfd717e6a320cf44b4afac2b0732d9fcbe2b7fa0cf60182905560009182526002602052604090912080546001600160a01b0319166001600160a01b03909216919091179055565b3360009081526003602090815260408083206208ae8d60eb1b84529091529020548111156103c85760405162461bcd60e51b815260040161032290610803565b3360009081526003602090815260408083206208ae8d60eb1b8452909152812080548392906103f8908490610847565b9091555050604051600090339083908381818185875af1925050503d806000811461043f576040519150601f19603f3d011682016040523d82523d6000602084013e610444565b606091505b50509050806104835760405162461bcd60e51b815260206004820152600b60248201526a10d85b1b0819985a5b195960aa1b6044820152606401610322565b5050565b6001818154811061049757600080fd5b600091825260209091200154905081565b606060018054806020026020016040519081016040528092919081815260200182805480156104f657602002820191906000526020600020905b8154815260200190600101908083116104e2575b5050505050905090565b33600090815260036020908152604080832084845290915290205482111561053a5760405162461bcd60e51b815260040161032290610803565b33600090815260036020908152604080832084845290915281208054849290610564908490610847565b90915550506000818152600260205260409081902054905163a9059cbb60e01b8152336004820152602481018490526001600160a01b039091169063a9059cbb906044015b602060405180830381600087803b1580156105c357600080fd5b505af11580156105d7573d6000803e3d6000fd5b505050506040513d601f19601f820116820180604052508101906105fb9190610734565b505050565b600080546001600160a01b031681526003602090815260408083208484529091529020548211156106435760405162461bcd60e51b815260040161032290610803565b600080546001600160a01b0316815260036020908152604080832084845290915281208054849290610564908490610847565b336000908152600360209081526040808320848452909152812080548492906106a090849061082f565b9091555050600081815260026020526040908190205490516323b872dd60e01b8152336004820152306024820152604481018490526001600160a01b03909116906323b872dd906064016105a9565b80356001600160a01b038116811461070657600080fd5b919050565b6000806040838503121561071d578182fd5b610726836106ef565b946020939093013593505050565b600060208284031215610745578081fd5b81518015158114610754578182fd5b9392505050565b60006020828403121561076c578081fd5b5035919050565b60008060408385031215610785578182fd5b82359150610795602084016106ef565b90509250929050565b600080604083850312156107b0578182fd5b50508035926020909101359150565b6020808252825182820181905260009190848201906040850190845b818110156107f7578351835292840192918401916001016107db565b50909695505050505050565b602080825260129082015271496e73756666696369656e742066756e647360701b604082015260600190565b600082198211156108425761084261085e565b500190565b6000828210156108595761085961085e565b500390565b634e487b7160e01b600052601160045260246000fdfea26469706673582212200070b0ceb437c57c74987f1c519a6194fba4aa14cf03c50a1b2938993b5b62ec64736f6c63430008040033",
  "linkReferences": {},
  "deployedLinkReferences": {}
}