{
  "_format": "hh-sol-artifact-1",
  "contractName": "SproutIndexToken",
  "sourceName": "contracts/SproutIndexToken.sol",
  "abi": [
    {
      "inputs": [],
      "stateMutability": "nonpayable",
      "type": "constructor"
    },
    {
      "anonymous": false,
      "inputs": [
        {
          "indexed": true,
          "internalType": "address",
          "name": "owner",
          "type": "address"
        },
        {
          "indexed": true,
          "internalType": "address",
          "name": "spender",
          "type": "address"
        },
        {
          "indexed": false,
          "internalType": "uint256",
          "name": "value",
          "type": "uint256"
        }
      ],
      "name": "Approval",
      "type": "event"
    },
    {
      "anonymous": false,
      "inputs": [
        {
          "indexed": true,
          "internalType": "address",
          "name": "delegator",
          "type": "address"
        },
        {
          "indexed": true,
          "internalType": "address",
          "name": "fromDelegate",
          "type": "address"
        },
        {
          "indexed": true,
          "internalType": "address",
          "name": "toDelegate",
          "type": "address"
        }
      ],
      "name": "DelegateChanged",
      "type": "event"
    },
    {
      "anonymous": false,
      "inputs": [
        {
          "indexed": true,
          "internalType": "address",
          "name": "delegate",
          "type": "address"
        },
        {
          "indexed": false,
          "internalType": "uint256",
          "name": "previousBalance",
          "type": "uint256"
        },
        {
          "indexed": false,
          "internalType": "uint256",
          "name": "newBalance",
          "type": "uint256"
        }
      ],
      "name": "DelegateVotesChanged",
      "type": "event"
    },
    {
      "anonymous": false,
      "inputs": [
        {
          "indexed": true,
          "internalType": "address",
          "name": "previousOwner",
          "type": "address"
        },
        {
          "indexed": true,
          "internalType": "address",
          "name": "newOwner",
          "type": "address"
        }
      ],
      "name": "OwnershipTransferred",
      "type": "event"
    },
    {
      "anonymous": false,
      "inputs": [
        {
          "indexed": false,
          "internalType": "uint256",
          "name": "id",
          "type": "uint256"
        }
      ],
      "name": "Snapshot",
      "type": "event"
    },
    {
      "anonymous": false,
      "inputs": [
        {
          "indexed": true,
          "internalType": "address",
          "name": "from",
          "type": "address"
        },
        {
          "indexed": true,
          "internalType": "address",
          "name": "to",
          "type": "address"
        },
        {
          "indexed": false,
          "internalType": "uint256",
          "name": "value",
          "type": "uint256"
        }
      ],
      "name": "Transfer",
      "type": "event"
    },
    {
      "inputs": [],
      "name": "DOMAIN_SEPARATOR",
      "outputs": [
        {
          "internalType": "bytes32",
          "name": "",
          "type": "bytes32"
        }
      ],
      "stateMutability": "view",
      "type": "function"
    },
    {
      "inputs": [
        {
          "internalType": "address",
          "name": "owner",
          "type": "address"
        },
        {
          "internalType": "address",
          "name": "spender",
          "type": "address"
        }
      ],
      "name": "allowance",
      "outputs": [
        {
          "internalType": "uint256",
          "name": "",
          "type": "uint256"
        }
      ],
      "stateMutability": "view",
      "type": "function"
    },
    {
      "inputs": [
        {
          "internalType": "address",
          "name": "spender",
          "type": "address"
        },
        {
          "internalType": "uint256",
          "name": "amount",
          "type": "uint256"
        }
      ],
      "name": "approve",
      "outputs": [
        {
          "internalType": "bool",
          "name": "",
          "type": "bool"
        }
      ],
      "stateMutability": "nonpayable",
      "type": "function"
    },
    {
      "inputs": [
        {
          "internalType": "address",
          "name": "account",
          "type": "address"
        }
      ],
      "name": "balanceOf",
      "outputs": [
        {
          "internalType": "uint256",
          "name": "",
          "type": "uint256"
        }
      ],
      "stateMutability": "view",
      "type": "function"
    },
    {
      "inputs": [
        {
          "internalType": "address",
          "name": "account",
          "type": "address"
        },
        {
          "internalType": "uint256",
          "name": "snapshotId",
          "type": "uint256"
        }
      ],
      "name": "balanceOfAt",
      "outputs": [
        {
          "internalType": "uint256",
          "name": "",
          "type": "uint256"
        }
      ],
      "stateMutability": "view",
      "type": "function"
    },
    {
      "inputs": [
        {
          "internalType": "uint256",
          "name": "amount",
          "type": "uint256"
        }
      ],
      "name": "burn",
      "outputs": [],
      "stateMutability": "nonpayable",
      "type": "function"
    },
    {
      "inputs": [
        {
          "internalType": "address",
          "name": "account",
          "type": "address"
        },
        {
          "internalType": "uint256",
          "name": "amount",
          "type": "uint256"
        }
      ],
      "name": "burnFrom",
      "outputs": [],
      "stateMutability": "nonpayable",
      "type": "function"
    },
    {
      "inputs": [
        {
          "internalType": "address",
          "name": "account",
          "type": "address"
        },
        {
          "internalType": "uint32",
          "name": "pos",
          "type": "uint32"
        }
      ],
      "name": "checkpoints",
      "outputs": [
        {
          "components": [
            {
              "internalType": "uint32",
              "name": "fromBlock",
              "type": "uint32"
            },
            {
              "internalType": "uint224",
              "name": "votes",
              "type": "uint224"
            }
          ],
          "internalType": "struct ERC20Votes.Checkpoint",
          "name": "",
          "type": "tuple"
        }
      ],
      "stateMutability": "view",
      "type": "function"
    },
    {
      "inputs": [],
      "name": "decimals",
      "outputs": [
        {
          "internalType": "uint8",
          "name": "",
          "type": "uint8"
        }
      ],
      "stateMutability": "view",
      "type": "function"
    },
    {
      "inputs": [
        {
          "internalType": "address",
          "name": "spender",
          "type": "address"
        },
        {
          "internalType": "uint256",
          "name": "subtractedValue",
          "type": "uint256"
        }
      ],
      "name": "decreaseAllowance",
      "outputs": [
        {
          "internalType": "bool",
          "name": "",
          "type": "bool"
        }
      ],
      "stateMutability": "nonpayable",
      "type": "function"
    },
    {
      "inputs": [
        {
          "internalType": "address",
          "name": "delegatee",
          "type": "address"
        }
      ],
      "name": "delegate",
      "outputs": [],
      "stateMutability": "nonpayable",
      "type": "function"
    },
    {
      "inputs": [
        {
          "internalType": "address",
          "name": "delegatee",
          "type": "address"
        },
        {
          "internalType": "uint256",
          "name": "nonce",
          "type": "uint256"
        },
        {
          "internalType": "uint256",
          "name": "expiry",
          "type": "uint256"
        },
        {
          "internalType": "uint8",
          "name": "v",
          "type": "uint8"
        },
        {
          "internalType": "bytes32",
          "name": "r",
          "type": "bytes32"
        },
        {
          "internalType": "bytes32",
          "name": "s",
          "type": "bytes32"
        }
      ],
      "name": "delegateBySig",
      "outputs": [],
      "stateMutability": "nonpayable",
      "type": "function"
    },
    {
      "inputs": [
        {
          "internalType": "address",
          "name": "account",
          "type": "address"
        }
      ],
      "name": "delegates",
      "outputs": [
        {
          "internalType": "address",
          "name": "",
          "type": "address"
        }
      ],
      "stateMutability": "view",
      "type": "function"
    },
    {
      "inputs": [
        {
          "internalType": "address",
          "name": "token",
          "type": "address"
        },
        {
          "internalType": "uint256",
          "name": "amount",
          "type": "uint256"
        }
      ],
      "name": "flashFee",
      "outputs": [
        {
          "internalType": "uint256",
          "name": "",
          "type": "uint256"
        }
      ],
      "stateMutability": "view",
      "type": "function"
    },
    {
      "inputs": [
        {
          "internalType": "contract IERC3156FlashBorrower",
          "name": "receiver",
          "type": "address"
        },
        {
          "internalType": "address",
          "name": "token",
          "type": "address"
        },
        {
          "internalType": "uint256",
          "name": "amount",
          "type": "uint256"
        },
        {
          "internalType": "bytes",
          "name": "data",
          "type": "bytes"
        }
      ],
      "name": "flashLoan",
      "outputs": [
        {
          "internalType": "bool",
          "name": "",
          "type": "bool"
        }
      ],
      "stateMutability": "nonpayable",
      "type": "function"
    },
    {
      "inputs": [
        {
          "internalType": "uint256",
          "name": "blockNumber",
          "type": "uint256"
        }
      ],
      "name": "getPastTotalSupply",
      "outputs": [
        {
          "internalType": "uint256",
          "name": "",
          "type": "uint256"
        }
      ],
      "stateMutability": "view",
      "type": "function"
    },
    {
      "inputs": [
        {
          "internalType": "address",
          "name": "account",
          "type": "address"
        },
        {
          "internalType": "uint256",
          "name": "blockNumber",
          "type": "uint256"
        }
      ],
      "name": "getPastVotes",
      "outputs": [
        {
          "internalType": "uint256",
          "name": "",
          "type": "uint256"
        }
      ],
      "stateMutability": "view",
      "type": "function"
    },
    {
      "inputs": [
        {
          "internalType": "address",
          "name": "account",
          "type": "address"
        }
      ],
      "name": "getVotes",
      "outputs": [
        {
          "internalType": "uint256",
          "name": "",
          "type": "uint256"
        }
      ],
      "stateMutability": "view",
      "type": "function"
    },
    {
      "inputs": [
        {
          "internalType": "address",
          "name": "spender",
          "type": "address"
        },
        {
          "internalType": "uint256",
          "name": "addedValue",
          "type": "uint256"
        }
      ],
      "name": "increaseAllowance",
      "outputs": [
        {
          "internalType": "bool",
          "name": "",
          "type": "bool"
        }
      ],
      "stateMutability": "nonpayable",
      "type": "function"
    },
    {
      "inputs": [
        {
          "internalType": "address",
          "name": "token",
          "type": "address"
        }
      ],
      "name": "maxFlashLoan",
      "outputs": [
        {
          "internalType": "uint256",
          "name": "",
          "type": "uint256"
        }
      ],
      "stateMutability": "view",
      "type": "function"
    },
    {
      "inputs": [
        {
          "internalType": "address",
          "name": "to",
          "type": "address"
        },
        {
          "internalType": "uint256",
          "name": "amount",
          "type": "uint256"
        }
      ],
      "name": "mint",
      "outputs": [],
      "stateMutability": "nonpayable",
      "type": "function"
    },
    {
      "inputs": [],
      "name": "name",
      "outputs": [
        {
          "internalType": "string",
          "name": "",
          "type": "string"
        }
      ],
      "stateMutability": "view",
      "type": "function"
    },
    {
      "inputs": [
        {
          "internalType": "address",
          "name": "owner",
          "type": "address"
        }
      ],
      "name": "nonces",
      "outputs": [
        {
          "internalType": "uint256",
          "name": "",
          "type": "uint256"
        }
      ],
      "stateMutability": "view",
      "type": "function"
    },
    {
      "inputs": [
        {
          "internalType": "address",
          "name": "account",
          "type": "address"
        }
      ],
      "name": "numCheckpoints",
      "outputs": [
        {
          "internalType": "uint32",
          "name": "",
          "type": "uint32"
        }
      ],
      "stateMutability": "view",
      "type": "function"
    },
    {
      "inputs": [],
      "name": "owner",
      "outputs": [
        {
          "internalType": "address",
          "name": "",
          "type": "address"
        }
      ],
      "stateMutability": "view",
      "type": "function"
    },
    {
      "inputs": [
        {
          "internalType": "address",
          "name": "owner",
          "type": "address"
        },
        {
          "internalType": "address",
          "name": "spender",
          "type": "address"
        },
        {
          "internalType": "uint256",
          "name": "value",
          "type": "uint256"
        },
        {
          "internalType": "uint256",
          "name": "deadline",
          "type": "uint256"
        },
        {
          "internalType": "uint8",
          "name": "v",
          "type": "uint8"
        },
        {
          "internalType": "bytes32",
          "name": "r",
          "type": "bytes32"
        },
        {
          "internalType": "bytes32",
          "name": "s",
          "type": "bytes32"
        }
      ],
      "name": "permit",
      "outputs": [],
      "stateMutability": "nonpayable",
      "type": "function"
    },
    {
      "inputs": [],
      "name": "renounceOwnership",
      "outputs": [],
      "stateMutability": "nonpayable",
      "type": "function"
    },
    {
      "inputs": [],
      "name": "snapshot",
      "outputs": [],
      "stateMutability": "nonpayable",
      "type": "function"
    },
    {
      "inputs": [],
      "name": "symbol",
      "outputs": [
        {
          "internalType": "string",
          "name": "",
          "type": "string"
        }
      ],
      "stateMutability": "view",
      "type": "function"
    },
    {
      "inputs": [],
      "name": "totalSupply",
      "outputs": [
        {
          "internalType": "uint256",
          "name": "",
          "type": "uint256"
        }
      ],
      "stateMutability": "view",
      "type": "function"
    },
    {
      "inputs": [
        {
          "internalType": "uint256",
          "name": "snapshotId",
          "type": "uint256"
        }
      ],
      "name": "totalSupplyAt",
      "outputs": [
        {
          "internalType": "uint256",
          "name": "",
          "type": "uint256"
        }
      ],
      "stateMutability": "view",
      "type": "function"
    },
    {
      "inputs": [
        {
          "internalType": "address",
          "name": "to",
          "type": "address"
        },
        {
          "internalType": "uint256",
          "name": "amount",
          "type": "uint256"
        }
      ],
      "name": "transfer",
      "outputs": [
        {
          "internalType": "bool",
          "name": "",
          "type": "bool"
        }
      ],
      "stateMutability": "nonpayable",
      "type": "function"
    },
    {
      "inputs": [
        {
          "internalType": "address",
          "name": "from",
          "type": "address"
        },
        {
          "internalType": "address",
          "name": "to",
          "type": "address"
        },
        {
          "internalType": "uint256",
          "name": "amount",
          "type": "uint256"
        }
      ],
      "name": "transferFrom",
      "outputs": [
        {
          "internalType": "bool",
          "name": "",
          "type": "bool"
        }
      ],
      "stateMutability": "nonpayable",
      "type": "function"
    },
    {
      "inputs": [
        {
          "internalType": "address",
          "name": "newOwner",
          "type": "address"
        }
      ],
      "name": "transferOwnership",
      "outputs": [],
      "stateMutability": "nonpayable",
      "type": "function"
    }
  ],
  "bytecode": "0x6101406040523480156200001257600080fd5b506040518060400160405280600c81526020016b0a6e0e4deeae84092dcc8caf60a31b81525080604051806040016040528060018152602001603160f81b8152506040518060400160405280600c81526020016b0a6e0e4deeae84092dcc8caf60a31b8152506040518060400160405280600681526020016514d41493d55560d21b8152508160039080519060200190620000af929190620009e4565b508051620000c5906004906020840190620009e4565b505050620000e2620000dc620001b060201b60201c565b620001b4565b815160208084019190912082518383012060e08290526101008190524660a0818152604080517f8b73c3c69bb8fe3d512ecc4cf759cc79239f7b179b0ffacaa9a75d522b39400f81880181905281830187905260608201869052608082019490945230818401528151808203909301835260c00190528051940193909320919290916080523060601b60c0526101205250620001aa935033925062000188915050601290565b6200019590600a62000ae4565b620001a490620f424062000ba3565b62000206565b62000c32565b3390565b600980546001600160a01b038381166001600160a01b0319831681179093556040519116919082907f8be0079c531659141344cd1fd0a4f28419497f9722a3daafe3b4186f6b6457e090600090a35050565b6200021d82826200022160201b62000fd11760201c565b5050565b620002388282620002d860201b620010611760201c565b6001600160e01b036200024c620003d58216565b1115620002b95760405162461bcd60e51b815260206004820152603060248201527f4552433230566f7465733a20746f74616c20737570706c79207269736b73206f60448201526f766572666c6f77696e6720766f74657360801b60648201526084015b60405180910390fd5b620002d2600e62001154620003db60201b1783620003f2565b50505050565b6001600160a01b038216620003305760405162461bcd60e51b815260206004820152601f60248201527f45524332303a206d696e7420746f20746865207a65726f2061646472657373006044820152606401620002b0565b6200033e60008383620005c8565b806002600082825462000352919062000a80565b90915550506001600160a01b038216600090815260208190526040812080548392906200038190849062000a80565b90915550506040518181526001600160a01b038316906000907fddf252ad1be2c89b69c2b068fc378daa952ba7f163c4a11628f55a4df523b3ef9060200160405180910390a36200021d60008383620005e5565b60025490565b6000620003e9828462000a80565b90505b92915050565b8254600090819080156200045057856200040e60018362000bc5565b815481106200042d57634e487b7160e01b600052603260045260246000fd5b60009182526020909120015464010000000090046001600160e01b031662000453565b60005b6001600160e01b031692506200046a83858760201c565b9150600081118015620004ba575043866200048760018462000bc5565b81548110620004a657634e487b7160e01b600052603260045260246000fd5b60009182526020909120015463ffffffff16145b156200053a57620004d682620005fd60201b620011601760201c565b86620004e460018462000bc5565b815481106200050357634e487b7160e01b600052603260045260246000fd5b9060005260206000200160000160046101000a8154816001600160e01b0302191690836001600160e01b03160217905550620005bf565b8560405180604001604052806200055c436200066c60201b620011cd1760201c565b63ffffffff1681526020016200057d85620005fd60201b620011601760201c565b6001600160e01b0390811690915282546001810184556000938452602093849020835194909301519091166401000000000263ffffffff909316929092179101555b50935093915050565b620005e0838383620006d360201b620012321760201c565b505050565b620005e08383836200073f60201b6200127f1760201c565b60006001600160e01b03821115620006685760405162461bcd60e51b815260206004820152602760248201527f53616665436173743a2076616c756520646f65736e27742066697420696e20326044820152663234206269747360c81b6064820152608401620002b0565b5090565b600063ffffffff821115620006685760405162461bcd60e51b815260206004820152602660248201527f53616665436173743a2076616c756520646f65736e27742066697420696e203360448201526532206269747360d01b6064820152608401620002b0565b620006eb838383620005e060201b620012511760201c565b6001600160a01b0383166200070f5762000705826200078b565b620005e0620007c3565b6001600160a01b038216620007295762000705836200078b565b62000734836200078b565b620005e0826200078b565b62000757838383620005e060201b620012511760201c565b6001600160a01b038381166000908152600c6020526040808220548584168352912054620005e092918216911683620007d5565b6001600160a01b03811660009081526005602090815260408083209183905290912054620007c0919062000910565b62000910565b50565b620007d36006620007ba60025490565b565b816001600160a01b0316836001600160a01b031614158015620007f85750600081115b15620005e0576001600160a01b0383161562000885576001600160a01b0383166000908152600d60209081526040822082916200084291906200095f901b620012b11785620003f2565b91509150846001600160a01b03166000805160206200353683398151915283836040516200087a929190918252602082015260400190565b60405180910390a250505b6001600160a01b03821615620005e0576001600160a01b0382166000908152600d6020908152604082208291620008c99190620003db901b620011541785620003f2565b91509150836001600160a01b031660008051602062003536833981519152838360405162000901929190918252602082015260400190565b60405180910390a25050505050565b60006200091c6200096d565b9050806200092a846200098b565b1015620005e0578254600180820185556000858152602080822090930193909355938401805494850181558252902090910155565b6000620003e9828462000bc5565b6000620009866008620009e060201b620012bd1760201c565b905090565b80546000906200099d57506000919050565b81548290620009af9060019062000bc5565b81548110620009ce57634e487b7160e01b600052603260045260246000fd5b90600052602060002001549050919050565b5490565b828054620009f29062000bdf565b90600052602060002090601f01602090048101928262000a16576000855562000a61565b82601f1062000a3157805160ff191683800117855562000a61565b8280016001018555821562000a61579182015b8281111562000a6157825182559160200191906001019062000a44565b50620006689291505b8082111562000668576000815560010162000a6a565b6000821982111562000a965762000a9662000c1c565b500190565b600181815b8085111562000adc57816000190482111562000ac05762000ac062000c1c565b8085161562000ace57918102915b93841c939080029062000aa0565b509250929050565b6000620003e960ff84168360008262000b0057506001620003ec565b8162000b0f57506000620003ec565b816001811462000b28576002811462000b335762000b53565b6001915050620003ec565b60ff84111562000b475762000b4762000c1c565b50506001821b620003ec565b5060208310610133831016604e8410600b841016171562000b78575081810a620003ec565b62000b84838362000a9b565b806000190482111562000b9b5762000b9b62000c1c565b029392505050565b600081600019048311821515161562000bc05762000bc062000c1c565b500290565b60008282101562000bda5762000bda62000c1c565b500390565b600181811c9082168062000bf457607f821691505b6020821081141562000c1657634e487b7160e01b600052602260045260246000fd5b50919050565b634e487b7160e01b600052601160045260246000fd5b60805160a05160c05160601c60e05161010051610120516128b162000c8560003960006116c201526000611711015260006116ec015260006116450152600061166f0152600061169901526128b16000f3fe608060405234801561001057600080fd5b50600436106102065760003560e01c8063715018a61161011a5780639ab24eb0116100ad578063d505accf1161007c578063d505accf14610478578063d9d98ce41461048b578063dd62ed3e1461049e578063f1127ed8146104b1578063f2fde38b146104ee57600080fd5b80639ab24eb01461042c578063a457c2d71461043f578063a9059cbb14610452578063c3cda5201461046557600080fd5b80638e539e8c116100e95780638e539e8c146103f657806395d89b41146104095780639711715a14610411578063981b24d01461041957600080fd5b8063715018a6146103b757806379cc6790146103bf5780637ecebe00146103d25780638da5cb5b146103e557600080fd5b806340c10f191161019d5780635c19a95c1161016c5780635c19a95c1461032d5780635cffe9de14610340578063613255ab146103535780636fcfff451461036657806370a082311461038e57600080fd5b806340c10f19146102ae57806342966c68146102c35780634ee2cd7e146102d6578063587cde1e146102e957600080fd5b8063313ce567116101d9578063313ce567146102715780633644e5151461028057806339509351146102885780633a46b1a81461029b57600080fd5b806306fdde031461020b578063095ea7b31461022957806318160ddd1461024c57806323b872dd1461025e575b600080fd5b610213610501565b6040516102209190612744565b60405180910390f35b61023c610237366004612568565b610593565b6040519015158152602001610220565b6002545b604051908152602001610220565b61023c61026c3660046124bb565b6105ad565b60405160128152602001610220565b6102506105d1565b61023c610296366004612568565b6105e0565b6102506102a9366004612568565b610602565b6102c16102bc366004612568565b610681565b005b6102c16102d13660046126d3565b6106b9565b6102506102e4366004612568565b6106c6565b6103156102f7366004612467565b6001600160a01b039081166000908152600c60205260409020541690565b6040516001600160a01b039091168152602001610220565b6102c161033b366004612467565b61071f565b61023c61034e366004612639565b610729565b610250610361366004612467565b6108e6565b610379610374366004612467565b61090e565b60405163ffffffff9091168152602001610220565b61025061039c366004612467565b6001600160a01b031660009081526020819052604090205490565b6102c1610930565b6102c16103cd366004612568565b610966565b6102506103e0366004612467565b61097b565b6009546001600160a01b0316610315565b6102506104043660046126d3565b610999565b6102136109f5565b6102c1610a04565b6102506104273660046126d3565b610a36565b61025061043a366004612467565b610a61565b61023c61044d366004612568565b610af6565b61023c610460366004612568565b610b71565b6102c1610473366004612593565b610b7f565b6102c16104863660046124fb565b610cb5565b610250610499366004612568565b610e19565b6102506104ac366004612483565b610e7c565b6104c46104bf3660046125ec565b610ea7565b60408051825163ffffffff1681526020928301516001600160e01b03169281019290925201610220565b6102c16104fc366004612467565b610f39565b6060600380546105109061281b565b80601f016020809104026020016040519081016040528092919081815260200182805461053c9061281b565b80156105895780601f1061055e57610100808354040283529160200191610589565b820191906000526020600020905b81548152906001019060200180831161056c57829003601f168201915b5050505050905090565b6000336105a18185856112c1565b60019150505b92915050565b6000336105bb8582856113e5565b6105c6858585611459565b506001949350505050565b60006105db611638565b905090565b6000336105a18185856105f38383610e7c565b6105fd91906127cc565b6112c1565b60004382106106585760405162461bcd60e51b815260206004820152601f60248201527f4552433230566f7465733a20626c6f636b206e6f7420796574206d696e65640060448201526064015b60405180910390fd5b6001600160a01b0383166000908152600d6020526040902061067a908361175f565b9392505050565b6009546001600160a01b031633146106ab5760405162461bcd60e51b815260040161064f90612797565b6106b58282611838565b5050565b6106c33382611842565b50565b6001600160a01b0382166000908152600560205260408120819081906106ed90859061184c565b9150915081610714576001600160a01b038516600090815260208190526040902054610716565b805b95945050505050565b6106c33382611951565b6000610734856108e6565b8411156107975760405162461bcd60e51b815260206004820152602b60248201527f4552433230466c6173684d696e743a20616d6f756e742065786365656473206d60448201526a30bc233630b9b42637b0b760a91b606482015260840161064f565b60006107a38686610e19565b90506107af8786611838565b6040516323e30c8b60e01b81527f439148f0bbc682ca079e46d6e2c2f0c1e3b820f1a291b069d8882abf8cf18dd9906001600160a01b038916906323e30c8b906108079033908b908b9088908c908c906004016126eb565b602060405180830381600087803b15801561082157600080fd5b505af1158015610835573d6000803e3d6000fd5b505050506040513d601f19601f820116820180604052508101906108599190612621565b146108b25760405162461bcd60e51b8152602060048201526024808201527f4552433230466c6173684d696e743a20696e76616c69642072657475726e2076604482015263616c756560e01b606482015260840161064f565b6108c687306108c184896127cc565b6113e5565b6108d9876108d483886127cc565b611842565b5060019695505050505050565b60006001600160a01b03821630146108ff5760006105a7565b6002546105a790600019612804565b6001600160a01b0381166000908152600d60205260408120546105a7906111cd565b6009546001600160a01b0316331461095a5760405162461bcd60e51b815260040161064f90612797565b61096460006119ca565b565b6109718233836113e5565b6106b58282611842565b6001600160a01b0381166000908152600a60205260408120546105a7565b60004382106109ea5760405162461bcd60e51b815260206004820152601f60248201527f4552433230566f7465733a20626c6f636b206e6f7420796574206d696e656400604482015260640161064f565b6105a7600e8361175f565b6060600480546105109061281b565b6009546001600160a01b03163314610a2e5760405162461bcd60e51b815260040161064f90612797565b6106c3611a1c565b6000806000610a4684600661184c565b9150915081610a5757600254610a59565b805b949350505050565b6001600160a01b0381166000908152600d60205260408120548015610ae3576001600160a01b0383166000908152600d60205260409020610aa3600183612804565b81548110610ac157634e487b7160e01b600052603260045260246000fd5b60009182526020909120015464010000000090046001600160e01b0316610ae6565b60005b6001600160e01b03169392505050565b60003381610b048286610e7c565b905083811015610b645760405162461bcd60e51b815260206004820152602560248201527f45524332303a2064656372656173656420616c6c6f77616e63652062656c6f77604482015264207a65726f60d81b606482015260840161064f565b6105c682868684036112c1565b6000336105a1818585611459565b83421115610bcf5760405162461bcd60e51b815260206004820152601d60248201527f4552433230566f7465733a207369676e61747572652065787069726564000000604482015260640161064f565b604080517fe48329057bfd03d55e49b547132e39cffd9c1820ad7b9d4c5307691425d15adf60208201526001600160a01b038816918101919091526060810186905260808101859052600090610c4990610c419060a00160405160208183030381529060405280519060200120611a76565b858585611ac4565b9050610c5481611aec565b8614610ca25760405162461bcd60e51b815260206004820152601960248201527f4552433230566f7465733a20696e76616c6964206e6f6e636500000000000000604482015260640161064f565b610cac8188611951565b50505050505050565b83421115610d055760405162461bcd60e51b815260206004820152601d60248201527f45524332305065726d69743a206578706972656420646561646c696e65000000604482015260640161064f565b60007f6e71edae12b1b97f4d1f60370fef10105fa2faae0126114a169c64845d6126c9888888610d348c611aec565b6040805160208101969096526001600160a01b0394851690860152929091166060840152608083015260a082015260c0810186905260e0016040516020818303038152906040528051906020012090506000610d8f82611a76565b90506000610d9f82878787611ac4565b9050896001600160a01b0316816001600160a01b031614610e025760405162461bcd60e51b815260206004820152601e60248201527f45524332305065726d69743a20696e76616c6964207369676e61747572650000604482015260640161064f565b610e0d8a8a8a6112c1565b50505050505050505050565b60006001600160a01b0383163014610e735760405162461bcd60e51b815260206004820152601b60248201527f4552433230466c6173684d696e743a2077726f6e6720746f6b656e0000000000604482015260640161064f565b50600092915050565b6001600160a01b03918216600090815260016020908152604080832093909416825291909152205490565b60408051808201909152600080825260208201526001600160a01b0383166000908152600d60205260409020805463ffffffff8416908110610ef957634e487b7160e01b600052603260045260246000fd5b60009182526020918290206040805180820190915291015463ffffffff8116825264010000000090046001600160e01b0316918101919091529392505050565b6009546001600160a01b03163314610f635760405162461bcd60e51b815260040161064f90612797565b6001600160a01b038116610fc85760405162461bcd60e51b815260206004820152602660248201527f4f776e61626c653a206e6577206f776e657220697320746865207a65726f206160448201526564647265737360d01b606482015260840161064f565b6106c3816119ca565b610fdb8282611061565b6002546001600160e01b03101561104d5760405162461bcd60e51b815260206004820152603060248201527f4552433230566f7465733a20746f74616c20737570706c79207269736b73206f60448201526f766572666c6f77696e6720766f74657360801b606482015260840161064f565b61105b600e61115483611b14565b50505050565b6001600160a01b0382166110b75760405162461bcd60e51b815260206004820152601f60248201527f45524332303a206d696e7420746f20746865207a65726f206164647265737300604482015260640161064f565b6110c360008383611cb7565b80600260008282546110d591906127cc565b90915550506001600160a01b038216600090815260208190526040812080548392906111029084906127cc565b90915550506040518181526001600160a01b038316906000907fddf252ad1be2c89b69c2b068fc378daa952ba7f163c4a11628f55a4df523b3ef9060200160405180910390a36106b560008383611cc2565b600061067a82846127cc565b60006001600160e01b038211156111c95760405162461bcd60e51b815260206004820152602760248201527f53616665436173743a2076616c756520646f65736e27742066697420696e20326044820152663234206269747360c81b606482015260840161064f565b5090565b600063ffffffff8211156111c95760405162461bcd60e51b815260206004820152602660248201527f53616665436173743a2076616c756520646f65736e27742066697420696e203360448201526532206269747360d01b606482015260840161064f565b6001600160a01b0383166112565761124982611ccd565b611251611cff565b505050565b6001600160a01b03821661126d5761124983611ccd565b61127683611ccd565b61125182611ccd565b6001600160a01b038381166000908152600c602052604080822054858416835291205461125192918216911683611d0d565b600061067a8284612804565b5490565b6001600160a01b0383166113235760405162461bcd60e51b8152602060048201526024808201527f45524332303a20617070726f76652066726f6d20746865207a65726f206164646044820152637265737360e01b606482015260840161064f565b6001600160a01b0382166113845760405162461bcd60e51b815260206004820152602260248201527f45524332303a20617070726f766520746f20746865207a65726f206164647265604482015261737360f01b606482015260840161064f565b6001600160a01b0383811660008181526001602090815260408083209487168084529482529182902085905590518481527f8c5be1e5ebec7d5bd14f71427d1e84f3dd0314c0f7b2291e5b200ac8c7c3b925910160405180910390a3505050565b60006113f18484610e7c565b9050600019811461105b578181101561144c5760405162461bcd60e51b815260206004820152601d60248201527f45524332303a20696e73756666696369656e7420616c6c6f77616e6365000000604482015260640161064f565b61105b84848484036112c1565b6001600160a01b0383166114bd5760405162461bcd60e51b815260206004820152602560248201527f45524332303a207472616e736665722066726f6d20746865207a65726f206164604482015264647265737360d81b606482015260840161064f565b6001600160a01b03821661151f5760405162461bcd60e51b815260206004820152602360248201527f45524332303a207472616e7366657220746f20746865207a65726f206164647260448201526265737360e81b606482015260840161064f565b61152a838383611cb7565b6001600160a01b038316600090815260208190526040902054818110156115a25760405162461bcd60e51b815260206004820152602660248201527f45524332303a207472616e7366657220616d6f756e7420657863656564732062604482015265616c616e636560d01b606482015260840161064f565b6001600160a01b038085166000908152602081905260408082208585039055918516815290812080548492906115d99084906127cc565b92505081905550826001600160a01b0316846001600160a01b03167fddf252ad1be2c89b69c2b068fc378daa952ba7f163c4a11628f55a4df523b3ef8460405161162591815260200190565b60405180910390a361105b848484611cc2565b6000306001600160a01b037f00000000000000000000000000000000000000000000000000000000000000001614801561169157507f000000000000000000000000000000000000000000000000000000000000000046145b156116bb57507f000000000000000000000000000000000000000000000000000000000000000090565b50604080517f00000000000000000000000000000000000000000000000000000000000000006020808301919091527f0000000000000000000000000000000000000000000000000000000000000000828401527f000000000000000000000000000000000000000000000000000000000000000060608301524660808301523060a0808401919091528351808403909101815260c0909201909252805191012090565b8154600090815b818110156117d157600061177a8284611e4a565b90508486828154811061179d57634e487b7160e01b600052603260045260246000fd5b60009182526020909120015463ffffffff1611156117bd578092506117cb565b6117c88160016127cc565b91505b50611766565b811561182357846117e3600184612804565b8154811061180157634e487b7160e01b600052603260045260246000fd5b60009182526020909120015464010000000090046001600160e01b0316611826565b60005b6001600160e01b031695945050505050565b6106b58282610fd1565b6106b58282611e65565b600080600084116118985760405162461bcd60e51b815260206004820152601660248201527504552433230536e617073686f743a20696420697320360541b604482015260640161064f565b6118a0611e7d565b8411156118ef5760405162461bcd60e51b815260206004820152601d60248201527f4552433230536e617073686f743a206e6f6e6578697374656e74206964000000604482015260640161064f565b60006118fb8486611e88565b845490915081141561191457600080925092505061194a565b600184600101828154811061193957634e487b7160e01b600052603260045260246000fd5b906000526020600020015492509250505b9250929050565b6001600160a01b038281166000818152600c60208181526040808420805485845282862054949093528787166001600160a01b03198416811790915590519190951694919391928592917f3134e8a2e6d97e929a7e54011ea5485d7d196dd5f0ba4d4ef95803e8e3fc257f9190a461105b828483611d0d565b600980546001600160a01b038381166001600160a01b0319831681179093556040519116919082907f8be0079c531659141344cd1fd0a4f28419497f9722a3daafe3b4186f6b6457e090600090a35050565b6000611a2c600880546001019055565b6000611a36611e7d565b90507f8030e83b04d87bef53480e26263266d6ca66863aa8506aca6f2559d18aa1cb6781604051611a6991815260200190565b60405180910390a1919050565b60006105a7611a83611638565b8360405161190160f01b6020820152602281018390526042810182905260009060620160405160208183030381529060405280519060200120905092915050565b6000806000611ad587878787611f67565b91509150611ae281612054565b5095945050505050565b6001600160a01b0381166000908152600a602052604090208054600181018255905b50919050565b825460009081908015611b6d5785611b2d600183612804565b81548110611b4b57634e487b7160e01b600052603260045260246000fd5b60009182526020909120015464010000000090046001600160e01b0316611b70565b60005b6001600160e01b03169250611b8983858763ffffffff16565b9150600081118015611bd557504386611ba3600184612804565b81548110611bc157634e487b7160e01b600052603260045260246000fd5b60009182526020909120015463ffffffff16145b15611c4357611be382611160565b86611bef600184612804565b81548110611c0d57634e487b7160e01b600052603260045260246000fd5b9060005260206000200160000160046101000a8154816001600160e01b0302191690836001600160e01b03160217905550611cae565b856040518060400160405280611c58436111cd565b63ffffffff168152602001611c6c85611160565b6001600160e01b0390811690915282546001810184556000938452602093849020835194909301519091166401000000000263ffffffff909316929092179101555b50935093915050565b611251838383611232565b61125183838361127f565b6001600160a01b038116600090815260056020908152604080832091839052909120546106c39190612255565b612255565b6109646006611cfa60025490565b816001600160a01b0316836001600160a01b031614158015611d2f5750600081115b15611251576001600160a01b03831615611dbd576001600160a01b0383166000908152600d602052604081208190611d6a906112b185611b14565b91509150846001600160a01b03167fdec2bacdd2f05b59de34da9b523dff8be42e5e38e818c82fdb0bae774387a7248383604051611db2929190918252602082015260400190565b60405180910390a250505b6001600160a01b03821615611251576001600160a01b0382166000908152600d602052604081208190611df39061115485611b14565b91509150836001600160a01b03167fdec2bacdd2f05b59de34da9b523dff8be42e5e38e818c82fdb0bae774387a7248383604051611e3b929190918252602082015260400190565b60405180910390a25050505050565b6000611e5960028484186127e4565b61067a908484166127cc565b611e6f828261229f565b61105b600e6112b183611b14565b60006105db60085490565b8154600090611e99575060006105a7565b82546000905b80821015611f03576000611eb38383611e4a565b905084868281548110611ed657634e487b7160e01b600052603260045260246000fd5b90600052602060002001541115611eef57809150611efd565b611efa8160016127cc565b92505b50611e9f565b600082118015611f4657508385611f1b600185612804565b81548110611f3957634e487b7160e01b600052603260045260246000fd5b9060005260206000200154145b15611f5f57611f56600183612804565b925050506105a7565b5090506105a7565b6000807f7fffffffffffffffffffffffffffffff5d576e7357a4501ddfe92f46681b20a0831115611f9e575060009050600361204b565b8460ff16601b14158015611fb657508460ff16601c14155b15611fc7575060009050600461204b565b6040805160008082526020820180845289905260ff881692820192909252606081018690526080810185905260019060a0016020604051602081039080840390855afa15801561201b573d6000803e3d6000fd5b5050604051601f1901519150506001600160a01b0381166120445760006001925092505061204b565b9150600090505b94509492505050565b600081600481111561207657634e487b7160e01b600052602160045260246000fd5b141561207f5750565b60018160048111156120a157634e487b7160e01b600052602160045260246000fd5b14156120ef5760405162461bcd60e51b815260206004820152601860248201527f45434453413a20696e76616c6964207369676e61747572650000000000000000604482015260640161064f565b600281600481111561211157634e487b7160e01b600052602160045260246000fd5b141561215f5760405162461bcd60e51b815260206004820152601f60248201527f45434453413a20696e76616c6964207369676e6174757265206c656e67746800604482015260640161064f565b600381600481111561218157634e487b7160e01b600052602160045260246000fd5b14156121da5760405162461bcd60e51b815260206004820152602260248201527f45434453413a20696e76616c6964207369676e6174757265202773272076616c604482015261756560f01b606482015260840161064f565b60048160048111156121fc57634e487b7160e01b600052602160045260246000fd5b14156106c35760405162461bcd60e51b815260206004820152602260248201527f45434453413a20696e76616c6964207369676e6174757265202776272076616c604482015261756560f01b606482015260840161064f565b600061225f611e7d565b90508061226b84612400565b1015611251578254600180820185556000858152602080822090930193909355938401805494850181558252902090910155565b6001600160a01b0382166122ff5760405162461bcd60e51b815260206004820152602160248201527f45524332303a206275726e2066726f6d20746865207a65726f206164647265736044820152607360f81b606482015260840161064f565b61230b82600083611cb7565b6001600160a01b0382166000908152602081905260409020548181101561237f5760405162461bcd60e51b815260206004820152602260248201527f45524332303a206275726e20616d6f756e7420657863656564732062616c616e604482015261636560f01b606482015260840161064f565b6001600160a01b03831660009081526020819052604081208383039055600280548492906123ae908490612804565b90915550506040518281526000906001600160a01b038516907fddf252ad1be2c89b69c2b068fc378daa952ba7f163c4a11628f55a4df523b3ef9060200160405180910390a361125183600084611cc2565b805460009061241157506000919050565b8154829061242190600190612804565b8154811061243f57634e487b7160e01b600052603260045260246000fd5b90600052602060002001549050919050565b919050565b803560ff8116811461245157600080fd5b600060208284031215612478578081fd5b813561067a81612866565b60008060408385031215612495578081fd5b82356124a081612866565b915060208301356124b081612866565b809150509250929050565b6000806000606084860312156124cf578081fd5b83356124da81612866565b925060208401356124ea81612866565b929592945050506040919091013590565b600080600080600080600060e0888a031215612515578283fd5b873561252081612866565b9650602088013561253081612866565b9550604088013594506060880135935061254c60808901612456565b925060a0880135915060c0880135905092959891949750929550565b6000806040838503121561257a578182fd5b823561258581612866565b946020939093013593505050565b60008060008060008060c087890312156125ab578182fd5b86356125b681612866565b955060208701359450604087013593506125d260608801612456565b92506080870135915060a087013590509295509295509295565b600080604083850312156125fe578182fd5b823561260981612866565b9150602083013563ffffffff811681146124b0578182fd5b600060208284031215612632578081fd5b5051919050565b600080600080600060808688031215612650578081fd5b853561265b81612866565b9450602086013561266b81612866565b935060408601359250606086013567ffffffffffffffff8082111561268e578283fd5b818801915088601f8301126126a1578283fd5b8135818111156126af578384fd5b8960208285010111156126c0578384fd5b9699959850939650602001949392505050565b6000602082840312156126e4578081fd5b5035919050565b6001600160a01b03878116825286166020820152604081018590526060810184905260a06080820181905281018290526000828460c084013781830160c090810191909152601f909201601f1916010195945050505050565b6000602080835283518082850152825b8181101561277057858101830151858201604001528201612754565b818111156127815783604083870101525b50601f01601f1916929092016040019392505050565b6020808252818101527f4f776e61626c653a2063616c6c6572206973206e6f7420746865206f776e6572604082015260600190565b600082198211156127df576127df612850565b500190565b6000826127ff57634e487b7160e01b81526012600452602481fd5b500490565b60008282101561281657612816612850565b500390565b600181811c9082168061282f57607f821691505b60208210811415611b0e57634e487b7160e01b600052602260045260246000fd5b634e487b7160e01b600052601160045260246000fd5b6001600160a01b03811681146106c357600080fdfea26469706673582212205b814ff17e55bd86c16573e97a0284d61f4ad0d4986e1eaf708d0d23f5f67c7e64736f6c63430008040033dec2bacdd2f05b59de34da9b523dff8be42e5e38e818c82fdb0bae774387a724",
  "linkReferences": {},
  "deployedLinkReferences": {}
}